{
  "contractName": "Cryptokitty",
  "abi": [
    {
      "constant": true,
      "inputs": [],
      "name": "name",
      "outputs": [
        {
          "name": "",
          "type": "string"
        }
      ],
      "payable": false,
      "stateMutability": "view",
      "type": "function"
    },
    {
      "constant": true,
      "inputs": [
        {
          "name": "_tokenId",
          "type": "uint256"
        }
      ],
      "name": "getApproved",
      "outputs": [
        {
          "name": "",
          "type": "address"
        }
      ],
      "payable": false,
      "stateMutability": "view",
      "type": "function"
    },
    {
      "constant": false,
      "inputs": [
        {
          "name": "_approved",
          "type": "address"
        },
        {
          "name": "_tokenId",
          "type": "uint256"
        }
      ],
      "name": "approve",
      "outputs": [],
      "payable": true,
      "stateMutability": "payable",
      "type": "function"
    },
    {
      "constant": false,
      "inputs": [
        {
          "name": "_from",
          "type": "address"
        },
        {
          "name": "_to",
          "type": "address"
        },
        {
          "name": "_tokenId",
          "type": "uint256"
        }
      ],
      "name": "transferFrom",
      "outputs": [],
      "payable": true,
      "stateMutability": "payable",
      "type": "function"
    },
    {
      "constant": false,
      "inputs": [
        {
          "name": "_from",
          "type": "address"
        },
        {
          "name": "_to",
          "type": "address"
        },
        {
          "name": "_tokenId",
          "type": "uint256"
        }
      ],
      "name": "safeTransferFrom",
      "outputs": [],
      "payable": true,
      "stateMutability": "payable",
      "type": "function"
    },
    {
      "constant": true,
      "inputs": [],
      "name": "nextId",
      "outputs": [
        {
          "name": "",
          "type": "uint256"
        }
      ],
      "payable": false,
      "stateMutability": "view",
      "type": "function"
    },
    {
      "constant": true,
      "inputs": [
        {
          "name": "_tokenId",
          "type": "uint256"
        }
      ],
      "name": "ownerOf",
      "outputs": [
        {
          "name": "",
          "type": "address"
        }
      ],
      "payable": false,
      "stateMutability": "view",
      "type": "function"
    },
    {
      "constant": true,
      "inputs": [
        {
          "name": "_owner",
          "type": "address"
        }
      ],
      "name": "balanceOf",
      "outputs": [
        {
          "name": "",
          "type": "uint256"
        }
      ],
      "payable": false,
      "stateMutability": "view",
      "type": "function"
    },
    {
      "constant": true,
      "inputs": [],
      "name": "symbol",
      "outputs": [
        {
          "name": "",
          "type": "string"
        }
      ],
      "payable": false,
      "stateMutability": "view",
      "type": "function"
    },
    {
      "constant": false,
      "inputs": [
        {
          "name": "_operator",
          "type": "address"
        },
        {
          "name": "_approved",
          "type": "bool"
        }
      ],
      "name": "setApprovalForAll",
      "outputs": [],
      "payable": false,
      "stateMutability": "nonpayable",
      "type": "function"
    },
    {
      "constant": false,
      "inputs": [
        {
          "name": "_from",
          "type": "address"
        },
        {
          "name": "_to",
          "type": "address"
        },
        {
          "name": "_tokenId",
          "type": "uint256"
        },
        {
          "name": "data",
          "type": "bytes"
        }
      ],
      "name": "safeTransferFrom",
      "outputs": [],
      "payable": true,
      "stateMutability": "payable",
      "type": "function"
    },
    {
      "constant": true,
      "inputs": [
        {
          "name": "_tokenId",
          "type": "uint256"
        }
      ],
      "name": "tokenURI",
      "outputs": [
        {
          "name": "",
          "type": "string"
        }
      ],
      "payable": false,
      "stateMutability": "view",
      "type": "function"
    },
    {
      "constant": true,
      "inputs": [
        {
          "name": "_owner",
          "type": "address"
        },
        {
          "name": "_operator",
          "type": "address"
        }
      ],
      "name": "isApprovedForAll",
      "outputs": [
        {
          "name": "",
          "type": "bool"
        }
      ],
      "payable": false,
      "stateMutability": "view",
      "type": "function"
    },
    {
      "constant": true,
      "inputs": [],
      "name": "admin",
      "outputs": [
        {
          "name": "",
          "type": "address"
        }
      ],
      "payable": false,
      "stateMutability": "view",
      "type": "function"
    },
    {
      "inputs": [
        {
          "name": "_name",
          "type": "string"
        },
        {
          "name": "_symbol",
          "type": "string"
        },
        {
          "name": "_tokenURIBase",
          "type": "string"
        }
      ],
      "payable": false,
      "stateMutability": "nonpayable",
      "type": "constructor"
    },
    {
      "anonymous": false,
      "inputs": [
        {
          "indexed": true,
          "name": "_from",
          "type": "address"
        },
        {
          "indexed": true,
          "name": "_to",
          "type": "address"
        },
        {
          "indexed": true,
          "name": "_tokenId",
          "type": "uint256"
        }
      ],
      "name": "Transfer",
      "type": "event"
    },
    {
      "anonymous": false,
      "inputs": [
        {
          "indexed": true,
          "name": "_owner",
          "type": "address"
        },
        {
          "indexed": true,
          "name": "_approved",
          "type": "address"
        },
        {
          "indexed": true,
          "name": "_tokenId",
          "type": "uint256"
        }
      ],
      "name": "Approval",
      "type": "event"
    },
    {
      "anonymous": false,
      "inputs": [
        {
          "indexed": true,
          "name": "_owner",
          "type": "address"
        },
        {
          "indexed": true,
          "name": "_operator",
          "type": "address"
        },
        {
          "indexed": false,
          "name": "_approved",
          "type": "bool"
        }
      ],
      "name": "ApprovalForAll",
      "type": "event"
    },
    {
      "constant": true,
      "inputs": [],
      "name": "getAllKitties",
      "outputs": [
        {
          "components": [
            {
              "name": "id",
              "type": "uint256"
            },
            {
              "name": "generation",
              "type": "uint256"
            },
            {
              "name": "geneA",
              "type": "uint256"
            },
            {
              "name": "geneB",
              "type": "uint256"
            }
          ],
          "name": "",
          "type": "tuple[]"
        }
      ],
      "payable": false,
      "stateMutability": "view",
      "type": "function"
    },
    {
      "constant": false,
      "inputs": [
        {
          "name": "_kitty1Id",
          "type": "uint256"
        },
        {
          "name": "_kitty2Id",
          "type": "uint256"
        }
      ],
      "name": "breed",
      "outputs": [],
      "payable": false,
      "stateMutability": "nonpayable",
      "type": "function"
    },
    {
      "constant": false,
      "inputs": [],
      "name": "mint",
      "outputs": [],
      "payable": false,
      "stateMutability": "nonpayable",
      "type": "function"
    }
  ],
  "bytecode": "0x60806040523480156200001157600080fd5b50604051620022d3380380620022d38339810180604052620000379190810190620001dd565b828282826004908051906020019062000052929190620000d2565b5081600590805190602001906200006b929190620000d2565b50806006908051906020019062000084929190620000d2565b5050505033600960006101000a81548173ffffffffffffffffffffffffffffffffffffffff021916908373ffffffffffffffffffffffffffffffffffffffff1602179055505050506200030f565b828054600181600116156101000203166002900490600052602060002090601f016020900481019282601f106200011557805160ff191683800117855562000146565b8280016001018555821562000146579182015b828111156200014557825182559160200191906001019062000128565b5b50905062000155919062000159565b5090565b6200017e91905b808211156200017a57600081600090555060010162000160565b5090565b90565b600082601f8301126200019357600080fd5b8151620001aa620001a482620002ac565b6200027e565b91508082526020830160208301858383011115620001c757600080fd5b620001d4838284620002d9565b50505092915050565b600080600060608486031215620001f357600080fd5b600084015167ffffffffffffffff8111156200020e57600080fd5b6200021c8682870162000181565b935050602084015167ffffffffffffffff8111156200023a57600080fd5b620002488682870162000181565b925050604084015167ffffffffffffffff8111156200026657600080fd5b620002748682870162000181565b9150509250925092565b6000604051905081810181811067ffffffffffffffff82111715620002a257600080fd5b8060405250919050565b600067ffffffffffffffff821115620002c457600080fd5b601f19601f8301169050602081019050919050565b60005b83811015620002f9578082015181840152602081019050620002dc565b8381111562000309576000848401525b50505050565b611fb4806200031f6000396000f3fe6080604052600436106100fe5760003560e01c806369491ed411610095578063b88d4fde11610064578063b88d4fde146102fa578063c87b56dd14610316578063d9ecad7b14610353578063e985e9c51461037c578063f851a440146103b9576100fe565b806369491ed41461023e57806370a082311461026957806395d89b41146102a6578063a22cb465146102d1576100fe565b806323b872dd116100d157806323b872dd1461019e57806342842e0e146101ba57806361b8ce8c146101d65780636352211e14610201576100fe565b806306fdde0314610103578063081812fc1461012e578063095ea7b31461016b5780631249c58b14610187575b600080fd5b34801561010f57600080fd5b506101186103e4565b6040516101259190611c85565b60405180910390f35b34801561013a57600080fd5b50610155600480360361015091908101906116d5565b610482565b6040516101629190611be1565b60405180910390f35b61018560048036036101809190810190611670565b6104bf565b005b34801561019357600080fd5b5061019c610617565b005b6101b860048036036101b39190810190611565565b610728565b005b6101d460048036036101cf9190810190611565565b610738565b005b3480156101e257600080fd5b506101eb610758565b6040516101f89190611d89565b60405180910390f35b34801561020d57600080fd5b50610228600480360361022391908101906116d5565b61075e565b6040516102359190611be1565b60405180910390f35b34801561024a57600080fd5b5061025361079b565b6040516102609190611c48565b60405180910390f35b34801561027557600080fd5b50610290600480360361028b9190810190611500565b61085f565b60405161029d9190611d89565b60405180910390f35b3480156102b257600080fd5b506102bb6108a7565b6040516102c89190611c85565b60405180910390f35b3480156102dd57600080fd5b506102f860048036036102f39190810190611634565b610945565b005b610314600480360361030f91908101906115b4565b610a42565b005b34801561032257600080fd5b5061033d600480360361033891908101906116d5565b610a99565b60405161034a9190611ca7565b60405180910390f35b34801561035f57600080fd5b5061037a600480360361037591908101906116fe565b610ac5565b005b34801561038857600080fd5b506103a3600480360361039e9190810190611529565b610cde565b6040516103b09190611c6a565b60405180910390f35b3480156103c557600080fd5b506103ce610d72565b6040516103db9190611be1565b60405180910390f35b60048054600181600116156101000203166002900480601f01602080910402602001604051908101604052809291908181526020018280546001816001161561010002031660029004801561047a5780601f1061044f5761010080835404028352916020019161047a565b820191906000526020600020905b81548152906001019060200180831161045d57829003601f168201915b505050505081565b60006002600083815260200190815260200160002060009054906101000a900473ffffffffffffffffffffffffffffffffffffffff169050919050565b60006001600083815260200190815260200160002060009054906101000a900473ffffffffffffffffffffffffffffffffffffffff1690508073ffffffffffffffffffffffffffffffffffffffff163373ffffffffffffffffffffffffffffffffffffffff1614610565576040517f08c379a000000000000000000000000000000000000000000000000000000000815260040161055c90611d49565b60405180910390fd5b826002600084815260200190815260200160002060006101000a81548173ffffffffffffffffffffffffffffffffffffffff021916908373ffffffffffffffffffffffffffffffffffffffff160217905550818373ffffffffffffffffffffffffffffffffffffffff163373ffffffffffffffffffffffffffffffffffffffff167f8c5be1e5ebec7d5bd14f71427d1e84f3dd0314c0f7b2291e5b200ac8c7c3b92560405160405180910390a4505050565b600960009054906101000a900473ffffffffffffffffffffffffffffffffffffffff1673ffffffffffffffffffffffffffffffffffffffff163373ffffffffffffffffffffffffffffffffffffffff16146106a7576040517f08c379a000000000000000000000000000000000000000000000000000000000815260040161069e90611cc9565b60405180910390fd5b60405180608001604052806008548152602001600181526020016106cb600a610d98565b81526020016106da600a610d98565b8152506007600060085481526020019081526020016000206000820151816000015560208201518160010155604082015181600201556060820151816003015590505061072633610dd6565b565b610733838383610df7565b505050565b6107538383836040518060200160405280600081525061111a565b505050565b60085481565b60006001600083815260200190815260200160002060009054906101000a900473ffffffffffffffffffffffffffffffffffffffff169050919050565b6060806008546040519080825280602002602001820160405280156107da57816020015b6107c761143e565b8152602001906001900390816107bf5790505b50905060008090505b600854811015610857576007600082815260200190815260200160002060405180608001604052908160008201548152602001600182015481526020016002820154815260200160038201548152505082828151811061083f57fe5b602002602001018190525080806001019150506107e3565b508091505090565b60008060008373ffffffffffffffffffffffffffffffffffffffff1673ffffffffffffffffffffffffffffffffffffffff168152602001908152602001600020549050919050565b60058054600181600116156101000203166002900480601f01602080910402602001604051908101604052809291908181526020018280546001816001161561010002031660029004801561093d5780601f106109125761010080835404028352916020019161093d565b820191906000526020600020905b81548152906001019060200180831161092057829003601f168201915b505050505081565b80600360003373ffffffffffffffffffffffffffffffffffffffff1673ffffffffffffffffffffffffffffffffffffffff16815260200190815260200160002060008473ffffffffffffffffffffffffffffffffffffffff1673ffffffffffffffffffffffffffffffffffffffff16815260200190815260200160002060006101000a81548160ff0219169083151502179055508173ffffffffffffffffffffffffffffffffffffffff163373ffffffffffffffffffffffffffffffffffffffff167f17307eab39ab6107e8899845ad3d59bd9653f200f220920489ca2b5937696c3183604051610a369190611c6a565b60405180910390a35050565b610a9285858585858080601f016020809104026020016040519081016040528093929190818152602001838380828437600081840152601f19601f8201169050808301925050505050505061111a565b5050505050565b6060600682604051602001610aaf929190611b82565b6040516020818303038152906040529050919050565b60085482108015610ad7575060085481105b610b16576040517f08c379a0000000000000000000000000000000000000000000000000000000008152600401610b0d90611d09565b60405180910390fd5b3373ffffffffffffffffffffffffffffffffffffffff16610b368361075e565b73ffffffffffffffffffffffffffffffffffffffff16148015610b8c57503373ffffffffffffffffffffffffffffffffffffffff16610b748261075e565b73ffffffffffffffffffffffffffffffffffffffff16145b610bcb576040517f08c379a0000000000000000000000000000000000000000000000000000000008152600401610bc290611d29565b60405180910390fd5b6000600760008481526020019081526020016000209050600060076000848152602001908152602001600020905060008160010154836001015411610c14578160010154610c1a565b82600101545b905060006001610c2a6004610d98565b11610c39578260020154610c3f565b83600201545b905060006001610c4f6004610d98565b11610c5e578360020154610c64565b84600301545b9050604051806080016040528060085481526020016001850181526020018381526020018281525060076000600854815260200190815260200160002060008201518160000155602082015181600101556040820151816002015560608201518160030155905050610cd533610dd6565b50505050505050565b6000600360008473ffffffffffffffffffffffffffffffffffffffff1673ffffffffffffffffffffffffffffffffffffffff16815260200190815260200160002060008373ffffffffffffffffffffffffffffffffffffffff1673ffffffffffffffffffffffffffffffffffffffff16815260200190815260200160002060009054906101000a900460ff16905092915050565b600960009054906101000a900473ffffffffffffffffffffffffffffffffffffffff1681565b6000814244604051602001610dae929190611bb5565b6040516020818303038152906040528051906020012060001c81610dce57fe5b069050919050565b610de26008548261126d565b60086000815480929190600101919050555050565b806001600082815260200190815260200160002060009054906101000a900473ffffffffffffffffffffffffffffffffffffffff1673ffffffffffffffffffffffffffffffffffffffff163373ffffffffffffffffffffffffffffffffffffffff161480610ec357506002600082815260200190815260200160002060009054906101000a900473ffffffffffffffffffffffffffffffffffffffff1673ffffffffffffffffffffffffffffffffffffffff163373ffffffffffffffffffffffffffffffffffffffff16145b80610f8e5750600360006001600084815260200190815260200160002060009054906101000a900473ffffffffffffffffffffffffffffffffffffffff1673ffffffffffffffffffffffffffffffffffffffff1673ffffffffffffffffffffffffffffffffffffffff16815260200190815260200160002060003373ffffffffffffffffffffffffffffffffffffffff1673ffffffffffffffffffffffffffffffffffffffff16815260200190815260200160002060009054906101000a900460ff16151560011515145b610fcd576040517f08c379a0000000000000000000000000000000000000000000000000000000008152600401610fc490611d49565b60405180910390fd5b60016000808673ffffffffffffffffffffffffffffffffffffffff1673ffffffffffffffffffffffffffffffffffffffff1681526020019081526020016000206000828254039250508190555060016000808573ffffffffffffffffffffffffffffffffffffffff1673ffffffffffffffffffffffffffffffffffffffff16815260200190815260200160002060008282540192505081905550826001600084815260200190815260200160002060006101000a81548173ffffffffffffffffffffffffffffffffffffffff021916908373ffffffffffffffffffffffffffffffffffffffff160217905550818373ffffffffffffffffffffffffffffffffffffffff168573ffffffffffffffffffffffffffffffffffffffff167fddf252ad1be2c89b69c2b068fc378daa952ba7f163c4a11628f55a4df523b3ef60405160405180910390a450505050565b611125848484610df7565b6111448373ffffffffffffffffffffffffffffffffffffffff166113f3565b156112675760008373ffffffffffffffffffffffffffffffffffffffff1663150b7a02338786866040518563ffffffff1660e01b815260040161118a9493929190611bfc565b602060405180830381600087803b1580156111a457600080fd5b505af11580156111b8573d6000803e3d6000fd5b505050506040513d601f19601f820116820180604052506111dc91908101906116ac565b905063150b7a0260e01b7bffffffffffffffffffffffffffffffffffffffffffffffffffffffff1916817bffffffffffffffffffffffffffffffffffffffffffffffffffffffff191614611265576040517f08c379a000000000000000000000000000000000000000000000000000000000815260040161125c90611d69565b60405180910390fd5b505b50505050565b600073ffffffffffffffffffffffffffffffffffffffff166001600084815260200190815260200160002060009054906101000a900473ffffffffffffffffffffffffffffffffffffffff1673ffffffffffffffffffffffffffffffffffffffff161461130f576040517f08c379a000000000000000000000000000000000000000000000000000000000815260040161130690611ce9565b60405180910390fd5b8073ffffffffffffffffffffffffffffffffffffffff166001600084815260200190815260200160002060009054906101000a9050505060016000808373ffffffffffffffffffffffffffffffffffffffff1673ffffffffffffffffffffffffffffffffffffffff16815260200190815260200160002060008282540192505081905550818173ffffffffffffffffffffffffffffffffffffffff16600073ffffffffffffffffffffffffffffffffffffffff167fddf252ad1be2c89b69c2b068fc378daa952ba7f163c4a11628f55a4df523b3ef60405160405180910390a45050565b60008060007fc5d2460186f7233c927e7db2dcc703c0e500b653ca82273b7bfad8045d85a47060001b9050833f91506000801b82141580156114355750808214155b92505050919050565b6040518060800160405280600081526020016000815260200160008152602001600081525090565b60006114728235611e82565b905092915050565b60006114868235611e94565b905092915050565b600061149a8251611ea0565b905092915050565b60008083601f8401126114b457600080fd5b8235905067ffffffffffffffff8111156114cd57600080fd5b6020830191508360018202830111156114e557600080fd5b9250929050565b60006114f88235611eec565b905092915050565b60006020828403121561151257600080fd5b600061152084828501611466565b91505092915050565b6000806040838503121561153c57600080fd5b600061154a85828601611466565b925050602061155b85828601611466565b9150509250929050565b60008060006060848603121561157a57600080fd5b600061158886828701611466565b935050602061159986828701611466565b92505060406115aa868287016114ec565b9150509250925092565b6000806000806000608086880312156115cc57600080fd5b60006115da88828901611466565b95505060206115eb88828901611466565b94505060406115fc888289016114ec565b935050606086013567ffffffffffffffff81111561161957600080fd5b611625888289016114a2565b92509250509295509295909350565b6000806040838503121561164757600080fd5b600061165585828601611466565b92505060206116668582860161147a565b9150509250929050565b6000806040838503121561168357600080fd5b600061169185828601611466565b92505060206116a2858286016114ec565b9150509250929050565b6000602082840312156116be57600080fd5b60006116cc8482850161148e565b91505092915050565b6000602082840312156116e757600080fd5b60006116f5848285016114ec565b91505092915050565b6000806040838503121561171157600080fd5b600061171f858286016114ec565b9250506020611730858286016114ec565b9150509250929050565b60006117468383611af8565b60808301905092915050565b61175b81611ef6565b82525050565b61176a81611e3a565b82525050565b600061177b82611dc3565b6117858185611dfc565b935061179083611da4565b60005b828110156117be576117a686835161173a565b95506117b182611def565b9150600181019050611793565b50849250505092915050565b6117d381611e4c565b82525050565b60006117e482611dce565b6117ee8185611e0d565b93506117fe818560208601611f2c565b61180781611f69565b840191505092915050565b600061181d82611de4565b6118278185611e1e565b9350611837818560208601611f2c565b61184081611f69565b840191505092915050565b600061185682611dd9565b6118608185611e1e565b9350611870818560208601611f2c565b61187981611f69565b840191505092915050565b6000815460018116600081146118a157600181146118c65761190a565b607f60028304166118b28187611e2f565b955060ff198316865280860193505061190a565b600282046118d48187611e2f565b95506118df85611db1565b60005b82811015611901578154818901526001820191506020810190506118e2565b82880195505050505b505092915050565b600061191f600a83611e1e565b91507f6f6e6c792061646d696e000000000000000000000000000000000000000000006000830152602082019050919050565b600061195f601883611e1e565b91507f5468697320746f6b656e20616c726561647920657869747300000000000000006000830152602082019050919050565b600061199f601b83611e1e565b91507f7468652074776f206b697474696573206d7573742065786973747300000000006000830152602082019050919050565b60006119df601f83611e1e565b91507f6d75737420626520746865206f776e6572206f662074776f206b6974746965006000830152602082019050919050565b6000611a1f600e83611e1e565b91507f4e6f7420617574686f72697a65640000000000000000000000000000000000006000830152602082019050919050565b6000611a5f602983611e1e565b91507f526563697069656e7420534320646f6573206e6f742068616e646c652045524360008301527f37323120746f6b656e00000000000000000000000000000000000000000000006020830152604082019050919050565b6000611ac5600183611e2f565b91507f2f000000000000000000000000000000000000000000000000000000000000006000830152600182019050919050565b608082016000820151611b0e6000850182611b4d565b506020820151611b216020850182611b4d565b506040820151611b346040850182611b4d565b506060820151611b476060850182611b4d565b50505050565b611b5681611e78565b82525050565b611b6581611e78565b82525050565b611b7c611b7782611e78565b611f5f565b82525050565b6000611b8e8285611884565b9150611b9982611ab8565b9150611ba58284611b6b565b6020820191508190509392505050565b6000611bc18285611b6b565b602082019150611bd18284611b6b565b6020820191508190509392505050565b6000602082019050611bf66000830184611761565b92915050565b6000608082019050611c116000830187611752565b611c1e6020830186611761565b611c2b6040830185611b5c565b8181036060830152611c3d81846117d9565b905095945050505050565b60006020820190508181036000830152611c628184611770565b905092915050565b6000602082019050611c7f60008301846117ca565b92915050565b60006020820190508181036000830152611c9f818461184b565b905092915050565b60006020820190508181036000830152611cc18184611812565b905092915050565b60006020820190508181036000830152611ce281611912565b9050919050565b60006020820190508181036000830152611d0281611952565b9050919050565b60006020820190508181036000830152611d2281611992565b9050919050565b60006020820190508181036000830152611d42816119d2565b9050919050565b60006020820190508181036000830152611d6281611a12565b9050919050565b60006020820190508181036000830152611d8281611a52565b9050919050565b6000602082019050611d9e6000830184611b5c565b92915050565b6000602082019050919050565b60008160005260206000209050919050565b600081519050919050565b600081519050919050565b600081519050919050565b600081519050919050565b6000602082019050919050565b600082825260208201905092915050565b600082825260208201905092915050565b600082825260208201905092915050565b600081905092915050565b6000611e4582611e58565b9050919050565b60008115159050919050565b600073ffffffffffffffffffffffffffffffffffffffff82169050919050565b6000819050919050565b6000611e8d82611ecc565b9050919050565b60008115159050919050565b60007fffffffff0000000000000000000000000000000000000000000000000000000082169050919050565b600073ffffffffffffffffffffffffffffffffffffffff82169050919050565b6000819050919050565b6000611f0182611f08565b9050919050565b6000611f1382611f1a565b9050919050565b6000611f2582611e58565b9050919050565b60005b83811015611f4a578082015181840152602081019050611f2f565b83811115611f59576000848401525b50505050565b6000819050919050565b6000601f19601f830116905091905056fea265627a7a723058206d4d61b9d706f4a1d9143b55410457e9c19150447f0677a0d9c36a8b8167b8d86c6578706572696d656e74616cf50037",
  "source": "pragma solidity ^0.5.7;\npragma experimental ABIEncoderV2;\n\nimport \"./ERC721Token.sol\";\n\ncontract Cryptokitty is ERC721Token {\n    struct Kitty {\n        uint256 id;\n        uint256 generation;\n        uint256 geneA;\n        uint256 geneB;\n    }\n    mapping(uint256 => Kitty) private kitties;\n    uint256 public nextId;\n    address public admin;\n\n    constructor(\n        string memory _name,\n        string memory _symbol,\n        string memory _tokenURIBase\n    ) public ERC721Token(_name, _symbol, _tokenURIBase) {\n        admin = msg.sender;\n    }\n\n    function getAllKitties() external view returns (Kitty[] memory) {\n        Kitty[] memory _kitties = new Kitty[](nextId);\n        for (uint256 i = 0; i < nextId; i++) {\n            _kitties[i] = kitties[i];\n        }\n        return _kitties;\n    }\n\n    function breed(uint256 _kitty1Id, uint256 _kitty2Id) external {\n        require(\n            _kitty1Id < nextId && _kitty2Id < nextId,\n            \"the two kitties must exists\"\n        );\n        require(\n            ownerOf(_kitty1Id) == msg.sender &&\n                ownerOf(_kitty2Id) == msg.sender,\n            \"must be the owner of two kittie\"\n        );\n        Kitty storage kitty1 = kitties[_kitty1Id];\n        Kitty storage kitty2 = kitties[_kitty2Id];\n        uint256 maxGen = kitty1.generation > kitty2.generation\n            ? kitty1.generation\n            : kitty2.generation;\n        uint256 geneA = _random(4) > 1 ? kitty1.geneA : kitty2.geneA;\n        uint256 geneB = _random(4) > 1 ? kitty1.geneB : kitty2.geneA;\n        kitties[nextId] = Kitty(nextId, maxGen + 1, geneA, geneB);\n        _mintKitty(msg.sender);\n    }\n\n    function mint() external {\n        require(msg.sender == admin, \"only admin\");\n        kitties[nextId] = Kitty(nextId, 1, _random(10), _random(10));\n        _mintKitty(msg.sender);\n    }\n\n    function _random(uint256 max) internal view returns (uint256) {\n        return\n            uint256(\n                keccak256(abi.encodePacked(block.timestamp, block.difficulty))\n            ) % max;\n    }\n\n    function _mintKitty(address _owner) private {\n        _mint(nextId, _owner);\n        nextId++;\n    }\n}\n",
  "sourcePath": "/Users/parvgarg/Desktop/Current/course-crypokitties/contracts/CryptoKitty.sol",
  "compiler": {
    "name": "solc",
    "version": "0.5.7+commit.6da8b019.Emscripten.clang"
  },
  "schemaVersion": "3.2.2",
  "updatedAt": "2020-07-29T07:16:12.694Z",
  "networkType": "ethereum",
  "devdoc": {
    "methods": {}
  },
  "userdoc": {
    "methods": {}
  }
}