{
  "contractName": "Cryptokitty",
  "abi": [
    {
      "constant": true,
      "inputs": [],
      "name": "name",
      "outputs": [
        {
          "name": "",
          "type": "string"
        }
      ],
      "payable": false,
      "stateMutability": "view",
      "type": "function"
    },
    {
      "constant": true,
      "inputs": [
        {
          "name": "_tokenId",
          "type": "uint256"
        }
      ],
      "name": "getApproved",
      "outputs": [
        {
          "name": "",
          "type": "address"
        }
      ],
      "payable": false,
      "stateMutability": "view",
      "type": "function"
    },
    {
      "constant": false,
      "inputs": [
        {
          "name": "_approved",
          "type": "address"
        },
        {
          "name": "_tokenId",
          "type": "uint256"
        }
      ],
      "name": "approve",
      "outputs": [],
      "payable": true,
      "stateMutability": "payable",
      "type": "function"
    },
    {
      "constant": false,
      "inputs": [
        {
          "name": "_from",
          "type": "address"
        },
        {
          "name": "_to",
          "type": "address"
        },
        {
          "name": "_tokenId",
          "type": "uint256"
        }
      ],
      "name": "transferFrom",
      "outputs": [],
      "payable": true,
      "stateMutability": "payable",
      "type": "function"
    },
    {
      "constant": false,
      "inputs": [
        {
          "name": "_from",
          "type": "address"
        },
        {
          "name": "_to",
          "type": "address"
        },
        {
          "name": "_tokenId",
          "type": "uint256"
        }
      ],
      "name": "safeTransferFrom",
      "outputs": [],
      "payable": true,
      "stateMutability": "payable",
      "type": "function"
    },
    {
      "constant": true,
      "inputs": [],
      "name": "nextId",
      "outputs": [
        {
          "name": "",
          "type": "uint256"
        }
      ],
      "payable": false,
      "stateMutability": "view",
      "type": "function"
    },
    {
      "constant": true,
      "inputs": [
        {
          "name": "_tokenId",
          "type": "uint256"
        }
      ],
      "name": "ownerOf",
      "outputs": [
        {
          "name": "",
          "type": "address"
        }
      ],
      "payable": false,
      "stateMutability": "view",
      "type": "function"
    },
    {
      "constant": true,
      "inputs": [
        {
          "name": "_owner",
          "type": "address"
        }
      ],
      "name": "balanceOf",
      "outputs": [
        {
          "name": "",
          "type": "uint256"
        }
      ],
      "payable": false,
      "stateMutability": "view",
      "type": "function"
    },
    {
      "constant": true,
      "inputs": [],
      "name": "symbol",
      "outputs": [
        {
          "name": "",
          "type": "string"
        }
      ],
      "payable": false,
      "stateMutability": "view",
      "type": "function"
    },
    {
      "constant": false,
      "inputs": [
        {
          "name": "_operator",
          "type": "address"
        },
        {
          "name": "_approved",
          "type": "bool"
        }
      ],
      "name": "setApprovalForAll",
      "outputs": [],
      "payable": false,
      "stateMutability": "nonpayable",
      "type": "function"
    },
    {
      "constant": false,
      "inputs": [
        {
          "name": "_from",
          "type": "address"
        },
        {
          "name": "_to",
          "type": "address"
        },
        {
          "name": "_tokenId",
          "type": "uint256"
        },
        {
          "name": "data",
          "type": "bytes"
        }
      ],
      "name": "safeTransferFrom",
      "outputs": [],
      "payable": true,
      "stateMutability": "payable",
      "type": "function"
    },
    {
      "constant": true,
      "inputs": [
        {
          "name": "_tokenId",
          "type": "uint256"
        }
      ],
      "name": "tokenURI",
      "outputs": [
        {
          "name": "",
          "type": "string"
        }
      ],
      "payable": false,
      "stateMutability": "view",
      "type": "function"
    },
    {
      "constant": true,
      "inputs": [
        {
          "name": "_owner",
          "type": "address"
        },
        {
          "name": "_operator",
          "type": "address"
        }
      ],
      "name": "isApprovedForAll",
      "outputs": [
        {
          "name": "",
          "type": "bool"
        }
      ],
      "payable": false,
      "stateMutability": "view",
      "type": "function"
    },
    {
      "constant": true,
      "inputs": [],
      "name": "admin",
      "outputs": [
        {
          "name": "",
          "type": "address"
        }
      ],
      "payable": false,
      "stateMutability": "view",
      "type": "function"
    },
    {
      "inputs": [
        {
          "name": "_name",
          "type": "string"
        },
        {
          "name": "_symbol",
          "type": "string"
        },
        {
          "name": "_tokenURIBase",
          "type": "string"
        }
      ],
      "payable": false,
      "stateMutability": "nonpayable",
      "type": "constructor"
    },
    {
      "anonymous": false,
      "inputs": [
        {
          "indexed": true,
          "name": "_from",
          "type": "address"
        },
        {
          "indexed": true,
          "name": "_to",
          "type": "address"
        },
        {
          "indexed": true,
          "name": "_tokenId",
          "type": "uint256"
        }
      ],
      "name": "Transfer",
      "type": "event"
    },
    {
      "anonymous": false,
      "inputs": [
        {
          "indexed": true,
          "name": "_owner",
          "type": "address"
        },
        {
          "indexed": true,
          "name": "_approved",
          "type": "address"
        },
        {
          "indexed": true,
          "name": "_tokenId",
          "type": "uint256"
        }
      ],
      "name": "Approval",
      "type": "event"
    },
    {
      "anonymous": false,
      "inputs": [
        {
          "indexed": true,
          "name": "_owner",
          "type": "address"
        },
        {
          "indexed": true,
          "name": "_operator",
          "type": "address"
        },
        {
          "indexed": false,
          "name": "_approved",
          "type": "bool"
        }
      ],
      "name": "ApprovalForAll",
      "type": "event"
    },
    {
      "constant": true,
      "inputs": [],
      "name": "getAllKitties",
      "outputs": [
        {
          "components": [
            {
              "name": "id",
              "type": "uint256"
            },
            {
              "name": "generation",
              "type": "uint256"
            },
            {
              "name": "geneA",
              "type": "uint256"
            },
            {
              "name": "geneB",
              "type": "uint256"
            }
          ],
          "name": "",
          "type": "tuple[]"
        }
      ],
      "payable": false,
      "stateMutability": "view",
      "type": "function"
    },
    {
      "constant": false,
      "inputs": [
        {
          "name": "_kitty1Id",
          "type": "uint256"
        },
        {
          "name": "_kitty2Id",
          "type": "uint256"
        }
      ],
      "name": "breed",
      "outputs": [],
      "payable": false,
      "stateMutability": "nonpayable",
      "type": "function"
    },
    {
      "constant": false,
      "inputs": [],
      "name": "mint",
      "outputs": [],
      "payable": false,
      "stateMutability": "nonpayable",
      "type": "function"
    }
  ],
  "bytecode": "0x60806040523480156200001157600080fd5b5060405162002341380380620023418339810180604052620000379190810190620001dd565b828282826004908051906020019062000052929190620000d2565b5081600590805190602001906200006b929190620000d2565b50806006908051906020019062000084929190620000d2565b5050505033600960006101000a81548173ffffffffffffffffffffffffffffffffffffffff021916908373ffffffffffffffffffffffffffffffffffffffff1602179055505050506200030f565b828054600181600116156101000203166002900490600052602060002090601f016020900481019282601f106200011557805160ff191683800117855562000146565b8280016001018555821562000146579182015b828111156200014557825182559160200191906001019062000128565b5b50905062000155919062000159565b5090565b6200017e91905b808211156200017a57600081600090555060010162000160565b5090565b90565b600082601f8301126200019357600080fd5b8151620001aa620001a482620002ac565b6200027e565b91508082526020830160208301858383011115620001c757600080fd5b620001d4838284620002d9565b50505092915050565b600080600060608486031215620001f357600080fd5b600084015167ffffffffffffffff8111156200020e57600080fd5b6200021c8682870162000181565b935050602084015167ffffffffffffffff8111156200023a57600080fd5b620002488682870162000181565b925050604084015167ffffffffffffffff8111156200026657600080fd5b620002748682870162000181565b9150509250925092565b6000604051905081810181811067ffffffffffffffff82111715620002a257600080fd5b8060405250919050565b600067ffffffffffffffff821115620002c457600080fd5b601f19601f8301169050602081019050919050565b60005b83811015620002f9578082015181840152602081019050620002dc565b8381111562000309576000848401525b50505050565b612022806200031f6000396000f3fe6080604052600436106100fe5760003560e01c806369491ed411610095578063b88d4fde11610064578063b88d4fde146102fa578063c87b56dd14610316578063d9ecad7b14610353578063e985e9c51461037c578063f851a440146103b9576100fe565b806369491ed41461023e57806370a082311461026957806395d89b41146102a6578063a22cb465146102d1576100fe565b806323b872dd116100d157806323b872dd1461019e57806342842e0e146101ba57806361b8ce8c146101d65780636352211e14610201576100fe565b806306fdde0314610103578063081812fc1461012e578063095ea7b31461016b5780631249c58b14610187575b600080fd5b34801561010f57600080fd5b506101186103e4565b6040516101259190611cf3565b60405180910390f35b34801561013a57600080fd5b5061015560048036036101509190810190611732565b610482565b6040516101629190611c4f565b60405180910390f35b610185600480360361018091908101906116cd565b6104bf565b005b34801561019357600080fd5b5061019c610617565b005b6101b860048036036101b391908101906115c2565b610728565b005b6101d460048036036101cf91908101906115c2565b610738565b005b3480156101e257600080fd5b506101eb610758565b6040516101f89190611df7565b60405180910390f35b34801561020d57600080fd5b5061022860048036036102239190810190611732565b61075e565b6040516102359190611c4f565b60405180910390f35b34801561024a57600080fd5b5061025361079b565b6040516102609190611cb6565b60405180910390f35b34801561027557600080fd5b50610290600480360361028b919081019061155d565b61085f565b60405161029d9190611df7565b60405180910390f35b3480156102b257600080fd5b506102bb6108a7565b6040516102c89190611cf3565b60405180910390f35b3480156102dd57600080fd5b506102f860048036036102f39190810190611691565b610945565b005b610314600480360361030f9190810190611611565b610a42565b005b34801561032257600080fd5b5061033d60048036036103389190810190611732565b610a99565b60405161034a9190611d15565b60405180910390f35b34801561035f57600080fd5b5061037a6004803603610375919081019061175b565b610ac5565b005b34801561038857600080fd5b506103a3600480360361039e9190810190611586565b610cde565b6040516103b09190611cd8565b60405180910390f35b3480156103c557600080fd5b506103ce610d72565b6040516103db9190611c4f565b60405180910390f35b60048054600181600116156101000203166002900480601f01602080910402602001604051908101604052809291908181526020018280546001816001161561010002031660029004801561047a5780601f1061044f5761010080835404028352916020019161047a565b820191906000526020600020905b81548152906001019060200180831161045d57829003601f168201915b505050505081565b60006002600083815260200190815260200160002060009054906101000a900473ffffffffffffffffffffffffffffffffffffffff169050919050565b60006001600083815260200190815260200160002060009054906101000a900473ffffffffffffffffffffffffffffffffffffffff1690508073ffffffffffffffffffffffffffffffffffffffff163373ffffffffffffffffffffffffffffffffffffffff1614610565576040517f08c379a000000000000000000000000000000000000000000000000000000000815260040161055c90611db7565b60405180910390fd5b826002600084815260200190815260200160002060006101000a81548173ffffffffffffffffffffffffffffffffffffffff021916908373ffffffffffffffffffffffffffffffffffffffff160217905550818373ffffffffffffffffffffffffffffffffffffffff163373ffffffffffffffffffffffffffffffffffffffff167f8c5be1e5ebec7d5bd14f71427d1e84f3dd0314c0f7b2291e5b200ac8c7c3b92560405160405180910390a4505050565b600960009054906101000a900473ffffffffffffffffffffffffffffffffffffffff1673ffffffffffffffffffffffffffffffffffffffff163373ffffffffffffffffffffffffffffffffffffffff16146106a7576040517f08c379a000000000000000000000000000000000000000000000000000000000815260040161069e90611d37565b60405180910390fd5b60405180608001604052806008548152602001600181526020016106cb600a610d98565b81526020016106da600a610dd8565b8152506007600060085481526020019081526020016000206000820151816000015560208201518160010155604082015181600201556060820151816003015590505061072633610e18565b565b610733838383610e39565b505050565b6107538383836040518060200160405280600081525061115c565b505050565b60085481565b60006001600083815260200190815260200160002060009054906101000a900473ffffffffffffffffffffffffffffffffffffffff169050919050565b6060806008546040519080825280602002602001820160405280156107da57816020015b6107c761149b565b8152602001906001900390816107bf5790505b50905060008090505b600854811015610857576007600082815260200190815260200160002060405180608001604052908160008201548152602001600182015481526020016002820154815260200160038201548152505082828151811061083f57fe5b602002602001018190525080806001019150506107e3565b508091505090565b60008060008373ffffffffffffffffffffffffffffffffffffffff1673ffffffffffffffffffffffffffffffffffffffff168152602001908152602001600020549050919050565b60058054600181600116156101000203166002900480601f01602080910402602001604051908101604052809291908181526020018280546001816001161561010002031660029004801561093d5780601f106109125761010080835404028352916020019161093d565b820191906000526020600020905b81548152906001019060200180831161092057829003601f168201915b505050505081565b80600360003373ffffffffffffffffffffffffffffffffffffffff1673ffffffffffffffffffffffffffffffffffffffff16815260200190815260200160002060008473ffffffffffffffffffffffffffffffffffffffff1673ffffffffffffffffffffffffffffffffffffffff16815260200190815260200160002060006101000a81548160ff0219169083151502179055508173ffffffffffffffffffffffffffffffffffffffff163373ffffffffffffffffffffffffffffffffffffffff167f17307eab39ab6107e8899845ad3d59bd9653f200f220920489ca2b5937696c3183604051610a369190611cd8565b60405180910390a35050565b610a9285858585858080601f016020809104026020016040519081016040528093929190818152602001838380828437600081840152601f19601f8201169050808301925050505050505061115c565b5050505050565b6060600682604051602001610aaf929190611bdf565b6040516020818303038152906040529050919050565b60085482108015610ad7575060085481105b610b16576040517f08c379a0000000000000000000000000000000000000000000000000000000008152600401610b0d90611d77565b60405180910390fd5b3373ffffffffffffffffffffffffffffffffffffffff16610b368361075e565b73ffffffffffffffffffffffffffffffffffffffff16148015610b8c57503373ffffffffffffffffffffffffffffffffffffffff16610b748261075e565b73ffffffffffffffffffffffffffffffffffffffff16145b610bcb576040517f08c379a0000000000000000000000000000000000000000000000000000000008152600401610bc290611d97565b60405180910390fd5b6000600760008481526020019081526020016000209050600060076000848152602001908152602001600020905060008160010154836001015411610c14578160010154610c1a565b82600101545b905060006001610c2a6004610d98565b11610c39578260020154610c3f565b83600201545b905060006001610c4f6004610dd8565b11610c5e578360020154610c64565b84600301545b9050604051806080016040528060085481526020016001850181526020018381526020018281525060076000600854815260200190815260200160002060008201518160000155602082015181600101556040820151816002015560608201518160030155905050610cd533610e18565b50505050505050565b6000600360008473ffffffffffffffffffffffffffffffffffffffff1673ffffffffffffffffffffffffffffffffffffffff16815260200190815260200160002060008373ffffffffffffffffffffffffffffffffffffffff1673ffffffffffffffffffffffffffffffffffffffff16815260200190815260200160002060009054906101000a900460ff16905092915050565b600960009054906101000a900473ffffffffffffffffffffffffffffffffffffffff1681565b600081424442604051602001610db093929190611c12565b6040516020818303038152906040528051906020012060001c81610dd057fe5b069050919050565b600081444242604051602001610df093929190611c12565b6040516020818303038152906040528051906020012060001c81610e1057fe5b069050919050565b610e24600854826112af565b60086000815480929190600101919050555050565b806001600082815260200190815260200160002060009054906101000a900473ffffffffffffffffffffffffffffffffffffffff1673ffffffffffffffffffffffffffffffffffffffff163373ffffffffffffffffffffffffffffffffffffffff161480610f0557506002600082815260200190815260200160002060009054906101000a900473ffffffffffffffffffffffffffffffffffffffff1673ffffffffffffffffffffffffffffffffffffffff163373ffffffffffffffffffffffffffffffffffffffff16145b80610fd05750600360006001600084815260200190815260200160002060009054906101000a900473ffffffffffffffffffffffffffffffffffffffff1673ffffffffffffffffffffffffffffffffffffffff1673ffffffffffffffffffffffffffffffffffffffff16815260200190815260200160002060003373ffffffffffffffffffffffffffffffffffffffff1673ffffffffffffffffffffffffffffffffffffffff16815260200190815260200160002060009054906101000a900460ff16151560011515145b61100f576040517f08c379a000000000000000000000000000000000000000000000000000000000815260040161100690611db7565b60405180910390fd5b60016000808673ffffffffffffffffffffffffffffffffffffffff1673ffffffffffffffffffffffffffffffffffffffff1681526020019081526020016000206000828254039250508190555060016000808573ffffffffffffffffffffffffffffffffffffffff1673ffffffffffffffffffffffffffffffffffffffff16815260200190815260200160002060008282540192505081905550826001600084815260200190815260200160002060006101000a81548173ffffffffffffffffffffffffffffffffffffffff021916908373ffffffffffffffffffffffffffffffffffffffff160217905550818373ffffffffffffffffffffffffffffffffffffffff168573ffffffffffffffffffffffffffffffffffffffff167fddf252ad1be2c89b69c2b068fc378daa952ba7f163c4a11628f55a4df523b3ef60405160405180910390a450505050565b611167848484610e39565b6111868373ffffffffffffffffffffffffffffffffffffffff16611450565b156112a95760008373ffffffffffffffffffffffffffffffffffffffff1663150b7a02338786866040518563ffffffff1660e01b81526004016111cc9493929190611c6a565b602060405180830381600087803b1580156111e657600080fd5b505af11580156111fa573d6000803e3d6000fd5b505050506040513d601f19601f8201168201806040525061121e9190810190611709565b905063150b7a0260e01b7bffffffffffffffffffffffffffffffffffffffffffffffffffffffff1916817bffffffffffffffffffffffffffffffffffffffffffffffffffffffff1916146112a7576040517f08c379a000000000000000000000000000000000000000000000000000000000815260040161129e90611dd7565b60405180910390fd5b505b50505050565b600073ffffffffffffffffffffffffffffffffffffffff166001600084815260200190815260200160002060009054906101000a900473ffffffffffffffffffffffffffffffffffffffff1673ffffffffffffffffffffffffffffffffffffffff1614611351576040517f08c379a000000000000000000000000000000000000000000000000000000000815260040161134890611d57565b60405180910390fd5b806001600084815260200190815260200160002060006101000a81548173ffffffffffffffffffffffffffffffffffffffff021916908373ffffffffffffffffffffffffffffffffffffffff16021790555060016000808373ffffffffffffffffffffffffffffffffffffffff1673ffffffffffffffffffffffffffffffffffffffff16815260200190815260200160002060008282540192505081905550818173ffffffffffffffffffffffffffffffffffffffff16600073ffffffffffffffffffffffffffffffffffffffff167fddf252ad1be2c89b69c2b068fc378daa952ba7f163c4a11628f55a4df523b3ef60405160405180910390a45050565b60008060007fc5d2460186f7233c927e7db2dcc703c0e500b653ca82273b7bfad8045d85a47060001b9050833f91506000801b82141580156114925750808214155b92505050919050565b6040518060800160405280600081526020016000815260200160008152602001600081525090565b60006114cf8235611ef0565b905092915050565b60006114e38235611f02565b905092915050565b60006114f78251611f0e565b905092915050565b60008083601f84011261151157600080fd5b8235905067ffffffffffffffff81111561152a57600080fd5b60208301915083600182028301111561154257600080fd5b9250929050565b60006115558235611f5a565b905092915050565b60006020828403121561156f57600080fd5b600061157d848285016114c3565b91505092915050565b6000806040838503121561159957600080fd5b60006115a7858286016114c3565b92505060206115b8858286016114c3565b9150509250929050565b6000806000606084860312156115d757600080fd5b60006115e5868287016114c3565b93505060206115f6868287016114c3565b925050604061160786828701611549565b9150509250925092565b60008060008060006080868803121561162957600080fd5b6000611637888289016114c3565b9550506020611648888289016114c3565b945050604061165988828901611549565b935050606086013567ffffffffffffffff81111561167657600080fd5b611682888289016114ff565b92509250509295509295909350565b600080604083850312156116a457600080fd5b60006116b2858286016114c3565b92505060206116c3858286016114d7565b9150509250929050565b600080604083850312156116e057600080fd5b60006116ee858286016114c3565b92505060206116ff85828601611549565b9150509250929050565b60006020828403121561171b57600080fd5b6000611729848285016114eb565b91505092915050565b60006020828403121561174457600080fd5b600061175284828501611549565b91505092915050565b6000806040838503121561176e57600080fd5b600061177c85828601611549565b925050602061178d85828601611549565b9150509250929050565b60006117a38383611b55565b60808301905092915050565b6117b881611f64565b82525050565b6117c781611ea8565b82525050565b60006117d882611e31565b6117e28185611e6a565b93506117ed83611e12565b60005b8281101561181b57611803868351611797565b955061180e82611e5d565b91506001810190506117f0565b50849250505092915050565b61183081611eba565b82525050565b600061184182611e3c565b61184b8185611e7b565b935061185b818560208601611f9a565b61186481611fd7565b840191505092915050565b600061187a82611e52565b6118848185611e8c565b9350611894818560208601611f9a565b61189d81611fd7565b840191505092915050565b60006118b382611e47565b6118bd8185611e8c565b93506118cd818560208601611f9a565b6118d681611fd7565b840191505092915050565b6000815460018116600081146118fe576001811461192357611967565b607f600283041661190f8187611e9d565b955060ff1983168652808601935050611967565b600282046119318187611e9d565b955061193c85611e1f565b60005b8281101561195e5781548189015260018201915060208101905061193f565b82880195505050505b505092915050565b600061197c600a83611e8c565b91507f6f6e6c792061646d696e000000000000000000000000000000000000000000006000830152602082019050919050565b60006119bc601883611e8c565b91507f5468697320746f6b656e20616c726561647920657869747300000000000000006000830152602082019050919050565b60006119fc601b83611e8c565b91507f7468652074776f206b697474696573206d7573742065786973747300000000006000830152602082019050919050565b6000611a3c601f83611e8c565b91507f6d75737420626520746865206f776e6572206f662074776f206b6974746965006000830152602082019050919050565b6000611a7c600e83611e8c565b91507f4e6f7420617574686f72697a65640000000000000000000000000000000000006000830152602082019050919050565b6000611abc602983611e8c565b91507f526563697069656e7420534320646f6573206e6f742068616e646c652045524360008301527f37323120746f6b656e00000000000000000000000000000000000000000000006020830152604082019050919050565b6000611b22600183611e9d565b91507f2f000000000000000000000000000000000000000000000000000000000000006000830152600182019050919050565b608082016000820151611b6b6000850182611baa565b506020820151611b7e6020850182611baa565b506040820151611b916040850182611baa565b506060820151611ba46060850182611baa565b50505050565b611bb381611ee6565b82525050565b611bc281611ee6565b82525050565b611bd9611bd482611ee6565b611fcd565b82525050565b6000611beb82856118e1565b9150611bf682611b15565b9150611c028284611bc8565b6020820191508190509392505050565b6000611c1e8286611bc8565b602082019150611c2e8285611bc8565b602082019150611c3e8284611bc8565b602082019150819050949350505050565b6000602082019050611c6460008301846117be565b92915050565b6000608082019050611c7f60008301876117af565b611c8c60208301866117be565b611c996040830185611bb9565b8181036060830152611cab8184611836565b905095945050505050565b60006020820190508181036000830152611cd081846117cd565b905092915050565b6000602082019050611ced6000830184611827565b92915050565b60006020820190508181036000830152611d0d81846118a8565b905092915050565b60006020820190508181036000830152611d2f818461186f565b905092915050565b60006020820190508181036000830152611d508161196f565b9050919050565b60006020820190508181036000830152611d70816119af565b9050919050565b60006020820190508181036000830152611d90816119ef565b9050919050565b60006020820190508181036000830152611db081611a2f565b9050919050565b60006020820190508181036000830152611dd081611a6f565b9050919050565b60006020820190508181036000830152611df081611aaf565b9050919050565b6000602082019050611e0c6000830184611bb9565b92915050565b6000602082019050919050565b60008160005260206000209050919050565b600081519050919050565b600081519050919050565b600081519050919050565b600081519050919050565b6000602082019050919050565b600082825260208201905092915050565b600082825260208201905092915050565b600082825260208201905092915050565b600081905092915050565b6000611eb382611ec6565b9050919050565b60008115159050919050565b600073ffffffffffffffffffffffffffffffffffffffff82169050919050565b6000819050919050565b6000611efb82611f3a565b9050919050565b60008115159050919050565b60007fffffffff0000000000000000000000000000000000000000000000000000000082169050919050565b600073ffffffffffffffffffffffffffffffffffffffff82169050919050565b6000819050919050565b6000611f6f82611f76565b9050919050565b6000611f8182611f88565b9050919050565b6000611f9382611ec6565b9050919050565b60005b83811015611fb8578082015181840152602081019050611f9d565b83811115611fc7576000848401525b50505050565b6000819050919050565b6000601f19601f830116905091905056fea265627a7a72305820eb0c236f1e16c9443f0082c47a3e089f2d6d0a64cf19006d5e7e8be2ae31265c6c6578706572696d656e74616cf50037",
  "source": "pragma solidity ^0.5.7;\npragma experimental ABIEncoderV2;\n\nimport \"./ERC721Token.sol\";\n\ncontract Cryptokitty is ERC721Token {\n    struct Kitty {\n        uint256 id;\n        uint256 generation;\n        uint256 geneA;\n        uint256 geneB;\n    }\n    mapping(uint256 => Kitty) private kitties;\n    uint256 public nextId;\n    address public admin;\n\n    constructor(\n        string memory _name,\n        string memory _symbol,\n        string memory _tokenURIBase\n    ) public ERC721Token(_name, _symbol, _tokenURIBase) {\n        admin = msg.sender;\n    }\n\n    function getAllKitties() external view returns (Kitty[] memory) {\n        Kitty[] memory _kitties = new Kitty[](nextId);\n        for (uint256 i = 0; i < nextId; i++) {\n            _kitties[i] = kitties[i];\n        }\n        return _kitties;\n    }\n\n    function breed(uint256 _kitty1Id, uint256 _kitty2Id) external {\n        require(\n            _kitty1Id < nextId && _kitty2Id < nextId,\n            \"the two kitties must exists\"\n        );\n        require(\n            ownerOf(_kitty1Id) == msg.sender &&\n                ownerOf(_kitty2Id) == msg.sender,\n            \"must be the owner of two kittie\"\n        );\n        Kitty storage kitty1 = kitties[_kitty1Id];\n        Kitty storage kitty2 = kitties[_kitty2Id];\n        uint256 maxGen = kitty1.generation > kitty2.generation\n            ? kitty1.generation\n            : kitty2.generation;\n        uint256 geneA = _random1(4) > 1 ? kitty1.geneA : kitty2.geneA;\n        uint256 geneB = _random2(4) > 1 ? kitty1.geneB : kitty2.geneA;\n        kitties[nextId] = Kitty(nextId, maxGen + 1, geneA, geneB);\n        _mintKitty(msg.sender);\n    }\n\n    function mint() external {\n        require(msg.sender == admin, \"only admin\");\n        kitties[nextId] = Kitty(nextId, 1, _random1(10), _random2(10));\n        _mintKitty(msg.sender);\n    }\n\n    function _random1(uint256 max) internal view returns (uint256) {\n        return\n            uint256(\n                keccak256(\n                    abi.encodePacked(block.timestamp, block.difficulty, now)\n                )\n            ) % max;\n    }\n\n    function _random2(uint256 max) internal view returns (uint256) {\n        return\n            uint256(\n                keccak256(\n                    abi.encodePacked(block.difficulty, block.timestamp, now)\n                )\n            ) % max;\n    }\n\n    function _mintKitty(address _owner) private {\n        _mint(nextId, _owner);\n        nextId++;\n    }\n}\n",
  "sourcePath": "/Users/parvgarg/Desktop/Current/course-crypokitties/contracts/CryptoKitty.sol",
  "compiler": {
    "name": "solc",
    "version": "0.5.7+commit.6da8b019.Emscripten.clang"
  },
  "schemaVersion": "3.2.2",
  "updatedAt": "2020-07-30T20:45:37.667Z",
  "networkType": "ethereum",
  "devdoc": {
    "methods": {}
  },
  "userdoc": {
    "methods": {}
  }
}